:100000000040002061E10100F5BE0100D76F000053
:1000100000000000000000000000000000000000E0
:10002000000000000000000000000000F5BE01001C
:100030000000000000000000F5BE0100F5BE010058
:10004000F5BE0100F5BE0100F19F0100558F0100D2
:10005000658F01000000000091970100359F0100AD
:10006000D19E01007B8E0100E59E010001970100F9
:1000700011910100F5BE0100F5BE0100F5BE0100C1
:10008000F5BE010015970100F5BE0100F5BE0100A7
:10009000198F0100F5BE0100F5BE0100F5BE01009B
:1000A000F5BE0100F5BE0100FA20002206498000DD
:1000B000064B086006491A601A719A601A738A64BE
:1000C000CA6401325A73704700000020C00000204B
:1000D000CC01002010B5084B08495A7B002A02D0F9
:1000E00000225A7304E0CA69002A02D0FFF7DCFF3D
:1000F00010BD30BFF1E7C046C0000020D000002096
:10010000A02010B5144B154ADB7FC005591C002BED
:100110000BD1D48C124BA343124C03510123023256
:10012000D177114A5B00985A15E010335B00D31861
:10013000DC880123A340A124E40003510B0009291A
:10014000EDD1C223802009499B008002C8500120C4
:10015000074B4042136410BD020000200000002045
:10016000F01F00000C050000ECF0010000900040C2
:10017000758E0100A02110B504230324C9051A00BF
:10018000C132FF32920001335450102BF7D10F3B94
:100190008377062010BD0023014A83779B50FFDE42
:1001A0000C050000837F0E20002B00D0103070471C
:1001B000002210B5054B5A7302321A71044A1268B4
:1001C000063A9A60FFF786FF062010BDC0000020A7
:1001D0000000002010B58479624352180424910075
:1001E00052088018F02221400A418B40C4792240F5
:1001F0001A43C27110BD30B5012403790D002342AA
:1002000012D0052151434919182905D11807C00FEB
:1002100009234042184030BDCB08C3185879072342
:10022000194008412040F3E783795A4351184B089D
:10023000C0180423C0798900194008410B33E9E74D
:10024000027903000520D20700D49879704702791B
:1002500003000520D20700D458797047F0B5050097
:1002600085B008000391FFF7EBFF0400052800DDCF
:1002700005240398FFF7EBFF0600052800DD05269F
:100280002B1D0293002301930093009BA34234DBB8
:10029000E343DB17234005242A005C4300232C1989
:1002A000193294422BD023716371A371E3712372CD
:1002B0000534F6E73A0000990398FFF79CFF029B8C
:1002C000019AD855012383401A4301920137B7425E
:1002D000F0DBF04305230099C01730401A1A4B4356
:1002E0000430C018002128181EF016FC009B0133B2
:1002F0000093029B05330293C7E70027E7E7019BC2
:100300002B8405B0F0BDF7B50C0017001E0001905E
:10031000B4420CDBF7BD2A00002321000198FFF74F
:1003200059FF0135089B9D42F5DB0134F0E73D00A4
:10033000F8E7F0B593B0039118991F00CB430492EE
:10034000199ADB171940D343DB171A40049B099213
:10035000DB43049ADB1713401A9A0C90524208911F
:1003600006929A4200DA0693FB431B9ADB1752422D
:100370003B4007929A4200DA0793039B0C989D79C1
:10038000049BEC181A9BE41AFFF75AFF089B049A87
:100390009B18A34200DD23000593834200DD0590F6
:1003A000039B0C985C791B9BE619F61AFFF74FFF2D
:1003B000099BFB18B34200DD33001E00834200DDC1
:1003C00006001A9B1A9ADB43DB171A401B9B0A9202
:1003D000DB431B9ADB171A400B921A9A089B944630
:1003E00063440893AB4200DD08951B9A099B944631
:1003F00063440993A34200DD0994059B069A934246
:1004000002DD079B9E4209DC099B0B9A00930A9927
:10041000089B0398FFF777FF13B0F0BD1A9B049A6F
:1004200093423EDB059B5C1E069B013B0D93012323
:100430005B4210931B9BBB4238DB731E0E93079BE2
:10044000013B0F9301235B4211930D9BA3424AD1C1
:10045000049A1A9B0A999C1A069B0B9AE318049318
:100460001B9B0398DD1B079BEF18059BAD19E41838
:100470000095049BFFF747FF099B2A000A99039800
:1004800000932300FFF73FFF099B3A0021000093F0
:100490000398089BFFF737FF089B0B9A0499009776
:1004A000B7E7059B069C0D930123C2E7079B0F96B8
:1004B0000E930123C8E72A0021000C98FFF79BFE4A
:1004C0001B9A03001A990498D21B091A521903980F
:1004D0000919FFF77FFE119BED180F9BAB42EAD184
:1004E000109BE418B1E70E9DF7E710B5FFF7A8FEE3
:1004F00043000120184310BD10B5FFF7A8FE4300CC
:100500000120184310BD0300203B5E2B00D93F2083
:10051000052320385843014BC0187047BC1E020009
:10052000F7B500900800FFF7EEFF00240600012752
:10053000042300251B1B0193735D019A21001341C5
:1005400009223B405B42134000982A000135FFF727
:1005500041FE052DF0D10134052CE9D1F7BD04236E
:1005600001225B1A9A40030010B5441D100019784F
:1005700008400A4203D10133A342F7D110BD012044
:10058000FCE710B504210400FFF7E9FF042300286D
:1005900007D103212000FFF7E2FF03005A1E934119
:1005A0000233180010BD002210B5027603694269BB
:1005B0000400C36093420ED21878A37E2077002BEC
:1005C00002D00520607610BDFFF79DFFFFF7D9FF31
:1005D0000130C0B2F6E720230377F2E7B623B42256
:1005E0000121F0B5194E5B00F3585200B558C01AFE
:1005F000623A0309FF3A1A409140C4092A5D800912
:100600008A432A55BA225200B158884200D2B050CB
:10061000B02203215200B4589446225C9D08080081
:100620000F00184040008740BA43625562460133CC
:10063000B4589D080800625D18401700400007414B
:10064000380008400228EAD0F0BDC046D0000020A3
:100650000300054A506A1A6841688A4202D3521A56
:100660001A6070470068F7E7D000002000237F2859
:1006700003D8034B1B5C9B07DB0F18007047C04679
:10068000E01B020000237F2803D8034B1B5C1B07E1
:10069000DB0F18007047C046E01B020000237F28D4
:1006A00003D8034B1B5C5B07DB0F18007047C04689
:1006B000E01B020000237F2803D8034B1B5CDB06F2
:1006C000DB0F18007047C046E01B020000237F28A4
:1006D00003D8034B1B5C9B06DB0F18007047C0461A
:1006E000E01B020010B50400FFF7E4FF002800D073
:1006F0002034200010BD10B50400FFF7E7FF0028EC
:1007000000D0203C200010BD8368C268934203D211
:100710005A1C82601878704701204042FBE702694A
:100720000123272A21D0222A1FD011000F339943F9
:10073000622902D00023752A17D141690123272994
:1007400013D0222911D0722A0AD1002362290CD198
:1007500082690123272A08D0223A5342534104E0F8
:100760000023622A01D17229F2D01800704710B517
:10077000016904000A2922D10122C3690133C3613E
:10078000636960682361A36922626361A368984713
:100790006369A0610D2B07D1033B6361984203D1CC
:1007A000A36860689847A061A369013306D16369B3
:1007B0005A1C03D00A2B01D00A23A36110BD036A7F
:1007C0005A1C0929DCD10722073393435A1CD7E767
:1007D000F7B5040000260127019125696B1C01D1A2
:1007E0003000FEBD0A2D0AD1019B002B02D0A36A66
:1007F000002BF5D02000FFF7BAFF3E00EDE7280000
:10080000FFF734FF002803D02000FFF7B0FFE4E734
:10081000232D08D12000FFF7AAFF23695A1CDCD042
:100820000A2BF7D1D9E75C2DDAD163690A2BD7D12E
:100830002000FFF79CFFE7E7012270B505000300E9
:100840001540104203D0100013430B6070BD002808
:10085000FCD006000324280026402342F6D15D6820
:100860003000EDB23A2DF1D19B6810000B601900F9
:1008700011401342EAD108002342E7D11868024A26
:10088000801A43425841E1E700F1010001210200D2
:1008900030B5050008000D400A4211D103241000B4
:1008A000204022420DD00F2308001340062B07D012
:1008B00028000A2B04D113090C3B9C426841C0B2AA
:1008C00030BD002AFCD05368DBB23A2B05D02D2B6B
:1008D000F6D1906843425841F1E70800F0E7030081
:1008E0000120034202D08343184370479A0712D075
:1008F0000F211A090B40062B03D10220D20010430E
:10090000F3E713000D3B084A0848022BEDD89B0083
:10091000D218D06CE9E70648002BE6D05A68D2B26C
:100920003A2AE2D19868E0E7ECF0010028F10100F2
:1009300030F1010010B503000068002801D11060FB
:1009400010BD840702D001201360F9E74468E4B2C7
:100950008C42F8D10300083313604068000AEFE7C7
:1009600003694269013B03619B0098587047036922
:1009700042695B1A013B9B0098587047002906D0DA
:10098000032382680B40134301D10B6883607047D7
:10099000F7B507000C001E0000290DD003230D0041
:1009A0001D40194211D14B68D9B291420DD11B0A99
:1009B0000193019B9D4200DBF7BD2300AA00083391
:1009C00038009958B0470135F3E721003800B047A7
:1009D000F2E710B59D22024B8968FFF7D9FF10BDE1
:1009E0009D59000010B56B22024B8968FFF7D0FFBC
:1009F00010BDC046292B000013B5040001A94068B2
:100A00000EF0BEFFA2680199030000208A4207D2BF
:100A1000995CE068FFF784FDA368E0680133A36098
:100A200016BD70B50C000500200068430130401071
:100A30000549083007F0DCF80122037985719343FA
:100A40000371447170BDC04644F10100F0B585B03A
:100A5000170004000E00FFF7F3FB0100FFF7E1FFB2
:100A600005002000FFF7ECFB0023019003930293A5
:100A700000903B00200032002900FFF75AFC2800BC
:100A800005B0F0BDF7B50500FFF7DAFB00902800D0
:100A9000FFF7DDFB010007000098FFF7C2FF00240D
:100AA0000190A74212DC0198FEBD3100220028000F
:100AB000FFF7A1FB3100030022000198FFF78AFB3A
:100AC0000136009BB342F0DC0134EAE70026F8E788
:100AD000F7B50500FFF7B4FB00902800FFF7B7FB60
:100AE000010007000098FFF79CFF00240190A74237
:100AF00013DC0198FEBD310022002800FFF77BFBCC
:100B0000092331001B1A22000198FFF763FB01360D
:100B1000009BB342EFDC0134E9E70026F8E705214A
:100B200070B505000800FFF77CFF04002900FFF7FF
:100B3000F7FC200070BD70B50D490500202007F0BE
:100B400057F8052104000800FFF76BFFA0606B68F1
:100B500020002361EA6862602A7CA276AA689B185A
:100B600063616B7CE376FFF71EFD200070BDC0461D
:100B700068F1010073B51C4B041E1C4D9E6C09D11D
:100B80001B4D2B7B002B2BD01A491B48FFF766FB14
:100B90002C7373BD07F076F9184B2100834216D0F1
:100BA00007232340022B07D01548A30713D10300C6
:100BB00022681C339A420ED1200001A90EF0E0FEFB
:100BC000019B012B0CD10078FFF7A9FF0100300039
:100BD000FFF744FBDDE70B49503008F09BF8E86174
:100BE000FFF762FAD5E7C046CC010020D000002014
:100BF000C000002080F101000400002044F1010049
:100C00006CF101000C760200F0B5002685B01700EB
:100C100002930AAB104C1B7801900800310003933B
:100C2000A664E66409F020FA0C4B0D4D1F60029B90
:100C300028602B73019BE064A3646E7309F0A4FA2F
:100C4000FFF798FF01232B71039BAE60B34201D0E5
:100C5000FFF740FA05B0F0BDCC01002000000020F5
:100C6000C0000020F0B50024354B8FB09C64DC64DC
:100C700008C909AD0293334B01380593324B0195F6
:100C8000009305230AF0BEFB099C0A9B079403937B
:100C90002B7B2F7A049307232E7C2340022B06D034
:100CA000A3073DD1059B22681C339A4238D120000E
:100CB00008A90EF065FE089B002B2ED0012B0CD14D
:100CC000002F0AD1002E08D10078FFF728FF0790E7
:100CD00007990298FFF7C2FA1FE01C490C2006F0A2
:100CE00087FF0521050044600800FFF79AFE07957D
:100CF000A860002E09D00C201549079C06F078FF4B
:100D000001235B42446083600790049B039A009335
:100D100007993B000298FFF777FF06200FB0F0BD60
:100D2000200007F0AFF80B4B8342E2D1002F01D136
:100D3000002ECDD0012007A90FF0DCFB0790D8E7EB
:100D4000CC0100206CF10100E0F1010008F201008B
:100D500028F2010044F10100F0B508C98DB00493F8
:100D6000154B07AC0093013805230194134D0AF08D
:100D700049FB079E06A930000EF002FE2900069BE3
:100D800005900293237B7C3103931420277C06F08B
:100D90002FFF059BC6604360029B47748360039BE3
:100DA00001000374237A04980093089A0023FFF744
:100DB0002BFF06200DB0F0BD40F20100ECF1010068
:100DC000F0B587B048680D000F680AF093F90490F9
:100DD000A8680AF08FF90590E8680AF08BF904001A
:100DE00028690AF087F9E343DB171C40C343050079
:100DF000DB171D4029002000FFF713FE002306002B
:100E00000100039338000293049A059B0195009416
:100E1000FFF78FFA300007B0F0BD10B504000800EE
:100E20000AF068F9002201002000FFF70FFE10BD54
:100E300010B5040008000AF05DF9002241422000CC
:100E4000FFF704FE10BD10B5040008000AF052F9C7
:100E5000002102002000FFF7F9FD10BD10B50400CD
:100E600008000AF047F9002142422000FFF7EEFD9A
:100E700010BDF8B548680F000C680AF03BF9060091
:100E8000B8680AF037F90500F8680AF033F9042E5B
:100E900001D8042D02D9094807F08CFF092801D98F
:100EA0000748F9E70122052382407343E3185B19E1
:100EB0001871238C062013432384F8BD1A76020090
:100EC0002F76020070B50400080016000AF012F92F
:100ED000050030000AF00EF9042D01D8042802D9CB
:100EE000054807F067FF05236B43E41820180379D2
:100EF00001205B00184370BD1A76020070B5040033
:100F0000080016000AF0F6F8050030000AF0F2F8C2
:100F10002B00060003430C480AD42000FFF790F989
:100F2000A84204DD2000FFF792F9B04202DC074836
:100F300007F040FF320029002000FFF75CF9430072
:100F40000120184370BDC046497602006176020058
:100F5000F7B504000F1E02DA174807F02BFFFFF762
:100F60006FF905002000FFF772F901002800FFF774
:100F700058FD002501902000FFF762F9A84218DC17
:100F80000198FEBD320029002000FFF734F903006C
:100F90007B43092B00DD0923320029000198FFF76C
:100FA00019F901362000FFF74BF9B042EADC0135B0
:100FB000E1E70026F6E7C04671760200F0B587B09B
:100FC000049008000D00019206F05CFF364B374C90
:100FD000834267D104981B38052863D81DF09EFE14
:100FE0001C1C03620F1C01980AF084F80A2141437B
:100FF0002800FFF7ADFF0400200007B0F0BD019806
:101000000AF078F8010064201DF0ECFE0A2105309A
:101010001DF0E8FE0100EBE7019806F033FF5834BD
:1010200084423FD12800FFF712F902902800FFF711
:1010300007F903900198FFF70AF9029B834202D057
:101040001B4807F0B7FE02990398FFF7EAFC002659
:101050000400039BB342CFDD002718E03A003100C3
:101060002800FFF7C8F83A00059031000198FFF713
:10107000C2F8049B1B2B0FD1059B1B18092B00DD0D
:1010800009233A0031002000FFF7A4F80137029B42
:10109000BB42E3DC0136DCE7059B1B1ADA43D217BF
:1010A0001340EEE70024A7E744F10100ECF0010053
:1010B0009D76020010B58379427900215A430132AE
:1010C000521007301DF028FD10BDF8B5C268436905
:1010D00004009A420BD1037E052B08D1C37E181E53
:1010E00048D02000FFF75FFAA068FFF7E3FF002673
:1010F00000250421A068771C82796A43D21953081D
:10110000C318DB7992000A4013410F2231001340CB
:101110002A000135FFF75EF8052DEAD13E00042FC5
:10112000E6D100252A0000230421A0680135FFF73D
:1011300051F8052DF6D1227E637E9A421BD2207F84
:10114000FFF7E1F9002506000427227E735DBA1A35
:101150001341012213405B420832134004212A004C
:10116000A0680135FFF736F8052DEED1237EA06883
:1011700001332376F8BD9A42F8D1E36861695A1CBD
:10118000E2608A4205D120232377A023DB0023835A
:10119000ECE75878A67E2077002E01D0074BF6E7C3
:1011A000FFF7B1F931000500FFF7D9F94042207689
:1011B0002800FFF7E6F901306076D7E7FF05000069
:1011C00010B50379DB0702D5014807F007FE10BD13
:1011D000BB760200F8B50C000F683800FFF7F0FF8F
:1011E000606809F087FF0500A06809F083FF2B0005
:1011F000060003430F4806D4E06809F07BFF0400B3
:10120000092802D90C4807F0D5FD3800FFF718F877
:10121000A84204DD3800FFF71AF8B04201DC0748A5
:10122000F1E73800320029002300FEF7D3FF062043
:10123000F8BDC046497602002F76020061760200B2
:1012400070B50D000400FFF7BBFF280009F052FF46
:10125000092802D9084807F0ADFDA1796379020198
:101260004B4301335B100243E3189C4201D106203B
:1012700070BDE2710134F8E72F760200F0B50C0082
:101280000B688BB0060018000593FFF799FF6368A1
:101290001800069306F0F6FD1C4B834202D01C4852
:1012A00007F09CFD072E01D11A48F9E7A06809F064
:1012B00021FF0890E06809F01DFF0990206909F0FE
:1012C00019FF0700606909F015FF030007903B4311
:1012D00002D5114807F06EFD00200500062E06D04D
:1012E000A06909F007FF0500E06909F003FF079B0B
:1012F000039001930698099B089A05990295009717
:10130000FFF717F806200BB0F0BDC04644F101000E
:10131000E7760200FA76020014770200F0B50E00BC
:1013200089B01100300006221F0007F0DFF9012EFE
:101330000ED005D9B31E012B00D888E0614884E0A7
:1013400005210800FFF76DFB0090FFF7B3FE18E0E2
:10135000072338680340022B07D0830700D073E0CF
:10136000594B02689A4200D06EE005A90EF008FBC6
:10137000059B03900293012B06D10078FFF7CFFB6A
:101380000090009809B0F0BD0022130015000192F2
:10139000029991421FDC002B05D0019A0132019283
:1013A0009D4200DA1D00002628000199FFF739FB55
:1013B000370034000090029BB34223DC019BBB4208
:1013C000DFDDA542DDDD210000233A000098FEF7B5
:1013D00001FF0134F5E70399895C0A2901D03A2914
:1013E00008D19D4200DA1D00019B013301930023C7
:1013F0000132CDE701332029FAD03929F8D9334811
:1014000007F0D8FC039B9B5D0A2B01D03A2B0DD132
:10141000A54203DC002401370136CCE7210000237C
:101420003A000098FEF7D6FE0134F1E7202B07D1F1
:10143000002321003A000098FEF7CCFE0134EBE7D0
:10144000392BE9D8303BF4E7214807F0C7FC38686E
:1014500009F050FE0400786809F04CFE0100050018
:101460002000FFF7DEFA0090022E00D16DE7012286
:10147000B86805A907F0D4FC23002B4306D42B0041
:1014800000266343069A0196934216D01148B7E7A7
:10149000019A059B9B18DA5D131C092A00D90923C0
:1014A000390032000098DBB2FEF794FE0137A74204
:1014B000EED1019B01361B190193AE4200D160E7CA
:1014C0000027F4E78B77020088F101002B770200F8
:1014D000557702006E770200F7B504000F00002573
:1014E000042A0FD101A940680EF04AFA2B00060029
:1014F0003A00019920680AF035F9315CA068FFF7DD
:101500000FF8A5682800FEBD030010B50020052BCC
:1015100002D1486808F052F810BD70B58568040023
:1015200001358560406808F049F809F0E3FD85421F
:1015300001DB0023A3600121A36804225B00606833
:10154000194308F04FF870BD10B51AF0E5FF64219B
:101550001DF048FC08F066FB10BD10B50800110036
:101560001AF070FA10BD70B504000D00FFF78EF987
:101570000023984207D02000FFF7B1F906F0F0FCF5
:10158000431B5A425341180070BD70B514000B0044
:1015900061424C4105004732D2B26100406A06F018
:1015A00075F92B8B2A6A01339BB22B83918C99425C
:1015B00000D2938470BD012110B5038B5D22013BE5
:1015C00003834942406A06F0E1F810BD20B5437834
:1015D000026A012B03D1100006F093F820BD034DE1
:1015E0000B00406A290006F09CF8F7E780F2010042
:1015F00020B54378026A012B03D1100006F081F870
:1016000020BD034D0B00406A290006F08AF8F7E779
:1016100088F2010010B58968406A090906F0AEFA3F
:1016200010BDF0B585B006000C0001920293002BAE
:1016300003D00823CA8A1343CB820027019B3D00B5
:10164000E383336A1B78BB422ED1029A0199706AF8
:1016500023690A4340D00121332249423EE0D26A45
:10166000FB00D118D35C0391053B012B1BD8002351
:1016700014E0009BE26ADB00D018D35C062B0BD190
:10168000039B59684368994206D1039B706A5A8844
:10169000002306F0D3F80135009B01330093238D1E
:1016A000009A9342E5DC0137326A138DBB42D6DCE7
:1016B000776A2369002DC8D0029A0199ECB20A43D7
:1016C00010D101212032491B380006F09FF821007B
:1016D000380006F048F803E03222012106F096F8BF
:1016E00005B0F0BDE9432122EEE7F8B50F00110087
:1016F0001A000023040085780669837003610E4B8D
:10170000FFF746F96368002B15D1618A002908D0DC
:10171000228A002A05D1606A06F0F5F9606A06F0AF
:10172000AEF9238A39002000628AFFF77AFF6B1E28
:101730009D412661A570F8BDEF58000010B504006A
:101740005E220021406A06F021F8606A0E2106F050
:101750003EF90121606A06F003FA10BD10B50B00D6
:10176000040014220121406A06F028F80121002318
:101770003622606A494206F014F82000FFF7DEFFC7
:1017800010BD10B58968406A1BF07AF910BD10B51C
:10179000492348221BF09AFF10BD10B54F234E225B
:1017A0001BF094FF10BD034B5A6902605861002082
:1017B0007047C046D0000020024B5A6912685A6137
:1017C0007047C046D000002010B5054A93691968DB
:1017D0009161002802D018005A68904710BDC04699
:1017E000D000002010B50400054B9B69002B01D0F0
:1017F000A34200D310BD0120FFF7E6FFF4E7C04687
:10180000D000002000239C46F0B52F4F83B0B023BA
:10181000002103245B00FD58013143189A08AA5C9B
:1018200023405B001A412240022AF5D0B6235B0018
:10183000FB58000109011B188A08002932D00F2625
:101840009200D2181968314229D1B6204000385888
:10185000884224D8B82464003C598C421FD9091A04
:10186000B020400038580C09890945180095455C9E
:101870000321200001942C000840400004410C404A
:10188000012C0CD181400D4300990D7061461F2938
:1018900013D8019860318900785001218C440433B9
:1018A0009342CFD16346002B0BD001235B429C4473
:1018B000634660339B00F858A9E7BE2149007C507D
:1018C000EDE703B0F0BDC046D0000020F0B583B016
:1018D000002927D004000F278900174E45182368D8
:1018E0003B421CD1B6225200B2589A4217D8B821B6
:1018F00049007158994212D99B1A1A099446B0228C
:101900005200B2589B09D118D05C01916346032163
:1019100002000B405B001A410A40012A04D0043443
:10192000A542DCD103B0F0BD9940019B084318707B
:101930006046FFF767FFF2E7D0000020B223F0B562
:101940006C4F5B00FA581833FB5897B0002B37D018
:10195000BE23B02600215B0092007600F950002AD9
:101960001AD000240325B959A308CB5C29002140D3
:1019700049000B412B40032B11D00134130094423A
:10198000F1D3BE214900795800291AD0BE23002185
:101990005B00F950002AE4D10023049390E020007A
:1019A000FFF730FFB2235B00FA58013492001300B6
:1019B0009442D8D3BE21490079580029E6D100E0ED
:1019C00093009C46BC235B00FB58634500D386E034
:1019D00001339C46002304936346002000260393B2
:1019E00001974EE0012B48D1B42040000858F70879
:1019F000C11905910721C05D07970F00010037400D
:101A0000394106970B4232D001996C33FF33CB58E2
:101A100032019B181A68002A1CD0AF21180008AAAE
:101A200008F09EFA089F002F0CD0099B0AA8029389
:101A30001CF0FCFF002857D10299380006F05AFD2F
:101A4000FFF7BAFEB423019A5B00D358079A99189E
:101A5000985C05910123069A93409843059B019A4F
:101A60001870B0235B00D3585A1902925A5D0323B1
:101A7000A34001209A43029B1A70039B01369E42A9
:101A80001DD2B02301995B00CB58B5085A19032425
:101A900002925A5D344013006400234103273B4007
:101AA000022B19D0032B9DD10223A3409A43029B02
:101AB0001A70039B0496013600209E42E1D3019FD9
:101AC000BC23049A5B00FA500022043BFA503B8985
:101AD000013B3B8117B0F0BD0028EAD0C7E7634661
:101AE000002B00D076E757E70B99034807F040FE3C
:101AF000A8E7C046D000002090F201000023B622E3
:101B0000F0B5036043608360C36003614361836138
:101B10003B4F7133FF335200BA58FB5800249B1AD5
:101B20000360002300220026032587B0039304935B
:101B300002930593B02329005B00FB5811409B5D85
:101B400049000B412B40012B46D0022B3ED0002BED
:101B500007D1002404990131049181600299013177
:101B60000291B221490079580132890001919142D4
:101B70000DD0B0235B00FB589608995D2B001340F5
:101B80005B0019410B0002211942D3D12B40012CDB
:101B900018D0022C02D14669013646618669A642F8
:101BA00000D28461019991421CD09608012BC1D1C9
:101BB000059B02998B4201D2C160059100239608D2
:101BC0000293B7E7066901360661E7E70399013436
:101BD000013103914160C4E703990124013103916C
:101BE0004160BEE7059A029B9A4200D2C360039B04
:101BF0001B014360049B1B01836007B0F0BDC0461E
:101C0000D0000020F0B50F3085B0019104094ED00E
:101C10007C4900910B89002B49D1802292008A5A7D
:101C2000002A48D1BA23009A5B00D158103BD558FE
:101C3000643BFF3B0293A94239D2B023009A5B0078
:101C4000D058313BFF3B002203269C461AE001326C
:101C5000944200D871E00C271F421AD101329442FD
:101C600000D8C6E067461F4217D10132944200D81F
:101C7000C2E03F2B14D80132944200D8BFE00131BA
:101C8000A94211D0435C1E42E1D00C2700221F4222
:101C9000E4D0674600221F42E7D000223F2BEAD95A
:101CA00001310022A942EDD1029B002B15D0002565
:101CB000280005B0F0BD812292000D0088588221D5
:101CC00089006958884228D2BA235B00E958103B42
:101CD000ED58002302938D42AFD8009D81222B89BD
:101CE000920001332B810023AB50883AAB501BF09C
:101CF00043F968464449091A8908FFF7E7FDFFF7E9
:101D00001DFEBA235B00E958103BED58643BFF3BD6
:101D10000293A94200D290E7C9E70121AB50883A6B
:101D20002981AB501BF028F968463749091A890800
:101D3000FFF7CCFDFFF702FE74E78F00BB1A591CBA
:101D40000291012A05D1BA25009E791C89086D00EF
:101D50007151BC2500996D004959B94200D2390032
:101D6000009E71510325591C8E080D4001216D0004
:101D7000A940855D0233294381559F4214D3B02188
:101D800049008C460392009A614655580321022669
:101D9000194049008E40310098082E5C01333143D0
:101DA00029549F42F0D2039AB6210098029B490021
:101DB00045581B019831ED18435812011B19435027
:101DC000002128001CF0A8FE019B002B00D16FE72A
:101DD0000023009A2B606933FF33D0580722029CFE
:101DE000683B2240FF3B9340E108425C134343546D
:101DF0005EE78F000137A1E78F0002379EE78F0073
:101E000003379BE7D00000200040002010B50021E0
:101E10000400FFF7F7FE002804D1002C02D02000B8
:101E200006F0B2FF10BD10B504001020FFF7EEFF62
:101E3000044B036063684360A368C360002383604E
:101E400010BDC04698F20100F7B5050030200E0025
:101E500017000193FFF7DAFF8223F34004000670B6
:101E6000C760DB071FD5BB681B099BB2A3820C2090
:101E7000FFF7CCFF072302789A43063B1343037016
:101E8000019B2061238304232020E384FFF7BEFF0E
:101E9000E0622B6A63600023A360EB69002B05D12D
:101EA000EC612000FEBD044B9B5DDFE71A009B68E0
:101EB000002BFBD19460F4E7B0F2010070B5130081
:101EC000427805000C00012A04D10A000721FFF71F
:101ED000BBFFA061A669280031004623E268FFF736
:101EE00004FCB08A70BD10B5036A04001A8BFFF7BA
:101EF000E5FF01002000FFF769FB10BD70B54378D6
:101F000004000D00012B06D1036A0A001B8B02217D
:101F1000FFF79AFF2861AA6829694C232000FFF780
:101F2000E4FB70BD10B50021FFF76CFE10BDC0468C
:101F300010B5044B1B89002B03D1002801D0FEF7FC
:101F40004DFB10BDD000002010B503680400002B2D
:101F500002D04068FFF7ECFF2000FFF7E9FF10BD5B
:101F6000F0B587B00300009002920800002B00D16A
:101F7000D7E0784C2389002900D193E0002B00D0D2
:101F800095E06D33FF33E658009B0F319E1BB22363
:101F90005B00E358320904929B0001320909059362
:101FA000934200D8C2E0B0235B00E35801250193BF
:101FB000032300279C460396019E9308F35C664624
:101FC00016407600334166463340022B00D170E064
:101FD000002B04D101377B198B4200D26AE0039EAB
:101FE000A9425BD000D26BE07F198F421DD2B4238F
:101FF0005B00E358F609995D029B002B57D007233D
:10200000049A1340194101231940FFF7FBFD061EF6
:102010004DD02A01009D29001CF03EFD2389002B94
:102020003DD12800FEF7DAFA39E0049B5E185B190F
:102030009E4224D9032702221F407F00BA40019FFD
:1020400098083F5C01333A43019F3A549E4216D9A7
:10205000B022520094460327019502916246A0588F
:102060003A0002251A40520095402A009908455C22
:1020700001332A4342549E42F0D1019D0299BC2271
:102080005200A358B34200D23300A350009B4A1B16
:1020900028010021120118181CF03EFD009E30009E
:1020A00007B0F0BD002B02D10098FEF797FA00268A
:1020B000F5E70135059B0132934200D07CE78EE7BE
:1020C00003221600049B019F5B181E407600B2405D
:1020D00098083E5C013396433E54691A012919D091
:1020E000049AB02794462200AC44644603259446E3
:1020F0007F0001906246D0592A002E001A405200FB
:1021000096409908425C0133B2434254A342F1D154
:1021100064460198BA235B00E2588242BED9E0507F
:10212000BCE70021FFF76EFD0600B8E70129B5D036
:102130000125002900D05AE7B0235B00E158049A3A
:102140005E3BFF3B1A4052009340B0090A5C9A4341
:102150000A54DFE7D000002010B501220C00FFF781
:10216000FFFE002804D1002C02D0200006F00CFE57
:1021700010BDF8B50F001D0001684368040016008B
:102180008B4208D310318068C900FFF7E5FF236850
:10219000A060103323606268A368511CD2006160A4
:1021A0009B1819683F02090E3F0A09063943196056
:1021B0005D60DE70F8BD10B5CAB281690023896B1D
:1021C000FFF7D7FF10BD70B5C368026904000D00AA
:1021D0009A4208D3103399004069FFF7BDFFE368C6
:1021E00060611033E36023696269591C9B002161BF
:1021F0009D5070BDF8B5446A06000D00002C16D045
:1022000063682268CB18934222D9083189182000CC
:102210000022FFF7A5FE021E17D1616820000831D9
:10222000FFF79EFE63682360336A636034622F00A9
:10223000802D00D2802738000830FFF7E7FD00230B
:10224000076043600400706202E023685B1923604A
:1022500060684519656008342018F8BD70B50D0038
:102260000C211400FFF7C6FF9D235B00056043604F
:10227000846070BDF7B50600140015000191002DB3
:1022800011D1290020000EF04FF90700002C14D1C5
:102290003A0001993000FFF7E1FF01003000FFF73D
:1022A00092FF012008E0013D29003000FEF75FFBAE
:1022B000FEF7ECFA0028E2D1FEBD3000FEF750FB3D
:1022C0000500FEF70CFB3B00013CA20008339850D0
:1022D000002DDBD003231D42D8D1716A0B000833D7
:1022E0009D42D3D34A689B189D42CFD26B681B0A8C
:1022F00002339B00D21A4A60C8E710B521240200BD
:10230000411806488A4204D380B2002800D1013027
:1023100010BD6043137801325840F3E70515000003
:10232000F0B585B007000E00FFF7E7FF154B0190F1
:102330005C6A002C01D120001FE0E36800250293B5
:10234000230018330393029B9D4201D12468F0E7D8
:1023500023696A00D35A019A934210D163695B5D85
:10236000B3420CD10398AB0032003900C0581CF0C6
:10237000F1FB002803D16068281805B0F0BD0135D5
:10238000E1E7C046D0000020F7B501900091FFF7CB
:10239000C7FF021E00D08CE0009BFF2B03D94649EB
:1023A000464806F0E5FC464E009B306D454C5D1CF2
:1023B00000280FD0B36D716DEB188B4226D96918C8
:1023C000FFF7CEFD071E1BD10200B16D306DFFF788
:1023D000C7FD37652E00802D00D2802630002700F3
:1023E000FFF7A0FDFC373865002836D12800FFF73D
:1023F00099FD2E00386500282FD1280006F0C4FC76
:10240000736D5B197365336D002BE3D02200FC32D2
:10241000936D166D0099F6180198EB189365FFF708
:102420006CFF009A0700019930001CF035FB002377
:10243000009AB354636A9D68DB68AB4225D36D0094
:102440000A2D00D20A25072068431830FFF76AFDDD
:10245000002808D1FC342065CFE723000022FC339C
:102460005E659A65D2E70300AA0018339B186A00DC
:1024700003619B184361626A02605368D268856099
:102480009B1843600023C3606062636ADA681B695B
:102490005100CF52636A00995B699954616A931D38
:1024A0009B005E50616ACB680133CB60636A5B68F6
:1024B000D2181000FEBDC046AA770200B8F2010093
:1024C000CC010020D0000020F8B5856904002B0065
:1024D00040331B780F00D81F04284FD81CF01EFC77
:1024E00003222A314C00A96CE86CFFF74DFF06006F
:1024F000902F10D1C3000221200000221943283060
:1025000007F03CFC002806D0426801210A422DD089
:102510008A43114302E00221360131432000FFF7D4
:1025200052FEF8BD00222B00A96CE86C07F0C2F93E
:102530000200EAE71349144806F0ECFB290007F013
:10254000A9F9A96CE86C0A2907D8FFF71DFF002834
:1025500006D0062100010143E0E7FFF7E1FEF6E7C0
:102560000A48AA6CE96C0CF0FBF90200A96B200088
:10257000FFF774FE0100D1E70548F2E70A211B01CD
:102580001943CBE7B8770200DCF2010088F10100C3
:1025900000F3010007B5019001A8FEF759F8019B6F
:1025A00002695B00985A0EBD07B5019001A8FEF7BD
:1025B0004FF84269019BD05C0EBD07B5019001A8A0
:1025C000FEF746F8019B06339B0018580EBDF0B588
:1025D00089B004001F00029101922D2A0CD1002124
:1025E000FEF7C5F900281BD0830703D14368DBB28F
:1025F000922B15D009B0F0BD019B922B00D0B5E114
:102600000021FEF7B4F9051E0AD0830708D1FF2682
:1026100043683340952B0AD12000FEF7A1F9013F12
:10262000019B1E3B012B46D83E00039719E0962BD9
:10263000F6D12000FEF794F96B68019AB3431A4370
:102640006A60D7E7019B1E2B29D10121FEF78BFF82
:10265000011E19D12800FEF786FF002801D1049B36
:102660000393039B013B0493002E0DD0013E3100E8
:102670002000FEF77CF92369039A05009B1A626922
:102680009B009850002EDDD10025049B9D420DD16A
:102690007F1B012FAED0019B332B20D159E00021AD
:1026A000FEF761FF0028EFD10121D3E72000FEF7FC
:1026B00057F90135E9E7019B202B2DD1002120009E
:1026C000FEF755F900210500FEF74DFF00281DD14A
:1026D00028000121FEF747FFDA25002817D1B91C91
:1026E00020008900FFF786FD0500029B019A036028
:1026F0003B0213434360002F00D06FE1019B962BF8
:1027000008D129002000FFF75EFD03E0FA25200034
:10271000FEF726F9290041E0019B052B00D1B3E02B
:102720001E00233EF6B2072E07D8180026380328CD
:1027300018D81CF0F3FA5353538F019B922B00D0FF
:102740002CE16368A268013BDB00D318DB782D2BFA
:10275000C5D13A0020000299FFF78CFD002800D077
:1027600048E7BCE7791E2000FEF701F906A9FEF74D
:1027700063F800288FD02225022E02D8019D0D3D3E
:10278000EDB2BE1E002E0DDA002F00D0FBE00121BD
:10279000069A0A4200D1FBE08A4311432000FFF76A
:1027A00012FD27E731002000FEF7E1F807A9FEF748
:1027B00043F8002800D16EE7079B0393222D05D133
:1027C000180007F0EDF9002800DA64E72800039A02
:1027D000069909F059FA013E0690D3E7791E2000C8
:1027E000FEF7C5F806A9FEF727F8BE1E002800D19F
:1027F00051E7002EC8DD711E2000FEF7B8F807A9CA
:10280000FEF71AF8002800D145E731002000FEF756
:10281000AEF80509EDB22B0002229343412B00D103
:1028200039E7079B233DEDB21800039307F0B8F991
:102830001A2D0AD8002800DA2DE72800039A0699F5
:1028400009F022FA023E0690D3E71E2DF5D90028A2
:10285000F3D120E700212000FEF789F806A9FDF753
:10286000EBFF002800D116E701212000FEF77FF8DA
:102870000309DBB20220322B01D03E3BD8B20699CD
:1028800007F0F0F906907FE700212000FEF76FF8CF
:10289000051E00D123E7032302001A4003921842C9
:1028A00005D1FE2243681340562B00D117E70121C2
:1028B0002000FEF75CF80F2203001340022B00D02B
:1028C0000DE7039B002B00D009E7FF216B680B404D
:1028D0002C2B00D003E7AB681A400592022A00D0E7
:1028E000FDE61B09482B00D0F9E6EB68002B00D170
:1028F000F5E69A0700D0F2E65A680A40302A00D07E
:10290000EDE69E68020930000492FDF7BFFF002843
:102910000DD13749374806F0FDF90600A169039B40
:102920002A68096806F076FF30001CF093F8300042
:10293000FDF7D5FF05002000049B0122D900059B6F
:1029400028300B43190007F019FA45600498FFF787
:1029500034FE037820005F2B0ED1FEF701F8200033
:10296000FDF7FEFF0027082302970193019B963B8A
:102970005A425341FF1853E6FDF7F2FF31002000A1
:10298000FFF721FCABE62000FDF7EAFF013FFBE685
:1029900039002000FFF762FC0100FFE6019B962B47
:1029A00014D16368A268033BDB00D318DB782D2BBE
:1029B00000D094E63A0020000299FFF75BFC002863
:1029C00000D18CE66368023B636013E6019B062B33
:1029D00000D1BEE6362B00D1BBE65CE62000FDF759
:1029E000BFFF2B00013FBA000833985083E6C04672
:1029F000D677020030F3010013B5019001A80C0056
:102A0000FDF726FE019B4269D25C063322609B00E3
:102A1000185816BDF0B58BB005000C0000AF0029AA
:102A200002D10123136018E0032319401C421DD179
:102A30006368F961DBB2682B07D1E3681B09136097
:102A4000A4680123002CECD0FB610F232340022B50
:102A50000ED1F96923090029E4D001211B22686AFB
:102A6000494204F0ABFEBD460BB0F0BD0023EBE7DE
:102A7000FB69002B02D1A3681B0913602600636861
:102A80001B0AFB60013BBB61FB689B001B197B6061
:102A9000B06804360009FFF787FDBB691B18BB61EE
:102AA0007B689E42F4D16A46BB690733DB08DB00D2
:102AB000D31A9D46BB603B6100237B617B699A0012
:102AC00023000833985824230009F918FFF794FFCE
:102AD0007E6A0100320038691BF0DEFF3B699E19F7
:102AE0007B6901337B617A69FB68934204D0731C74
:102AF0003B612E233370E1E7B969B868FFF744FC06
:102B0000012103001B22686A494204F057FEFB6959
:102B1000002BA8D07B6804349C42A4D0A168686ACA
:102B2000090905F02BF8F5E737B504000D00802200
:102B30000121406A04F02AFE606A0E2104F047FF7A
:102B40002900200001AAFFF765FF20000199FEF788
:102B50003DFD37BD8446F0B5002064462D4D206014
:102B6000086010601860686A85B0FC35019500281F
:102B70000ED1196812688A181A6005B0F0BD16687F
:102B80002578013676191660013410E000243BE008
:102B9000214CA042EDD064466546246801342C6087
:102BA0000C68C668A4190C604469C768E719BC4280
:102BB000E5D30F240F2504402842E7D1019D2E6F55
:102BC000B04221D36F6FB8421ED20327861B35094E
:102BD0000295019DB6096D6EAE5D0395029D2F4075
:102BE0007F003E4103252E40012E0DD1029D013470
:102BF0002E19039DB708EF5D03252E40760037415F
:102C00002F40022FF2D024011E6836191E60006882
:102C1000ADE7C046D0000020601C020070B5040083
:102C2000081E00D10130002565602060FFF7EEF836
:102C30002573A06070BD70B50D0004000131FFF771
:102C4000EDFF656070BD10B5037B0400002B02D161
:102C50008068FFF76DF90023A36010BD10B5041E56
:102C60000CD0C3684068984720004430FFF7EBFF62
:102C7000606BFFF75DF92000FFF75AF910BD70B5E2
:102C8000037B04000D00002B03D00021064806F052
:102C90006FF8016880686918FFF75EFA2368A06022
:102CA0005D192560C01870BDB8F2010070B54468A8
:102CB00003680C1905009C4210D9037B002B03D03C
:102CC0000021074806F054F8072310349C430834C9
:102CD00021008068FFF740FA2C60A86070BDC046F4
:102CE000B8F2010070B5040015000E001100FFF7E6
:102CF000DDFF6368A0682A003100C0181BF0FAFEEF
:102D000063685B19636070BD70B504000D00FFF768
:102D1000CDFF6368A068C0185B19636070BD10B513
:102D20000268436804009A4202D10121FFF7A7FF1D
:102D30000021A2686368D154A06810BD10B50C00D2
:102D40000121FFF7E1FF047010BDF7B50C00CDB213
:102D50007F2904D80121FFF7D7FF0570F7BD3F2772
:102D600080268B09DBB2019380233D4076423543B8
:102D7000EDB21B01994209D20221FFF7C5FF4023A2
:102D8000019A5B42134303704570E7E70B0BDBB21C
:102D90000093019B3B403343DBB2019380235B02F2
:102DA00099420BD20321FFF7AFFF2023009A5B4229
:102DB00013430370019B85704370CFE70421FFF735
:102DC000A3FF1023A40C5B4223430370009BC57038
:102DD0003B401E43019B46708370BFE770B5050002
:102DE00008000C001BF0D5FE210002002800FFF7B0
:102DF00079FF70BD426800238A4200D3531A4360B2
:102E000070470021F0B5070087B08164FDF7E0FC52
:102E1000FB693C6ABB637B6AFC63002B05DA3A0002
:102E2000062140321170013306E0002B07D03A0032
:102E3000052140321170013B7B6207B0F0BD0028D4
:102E400033D0BB6A002B30D13900043340310B70D2
:102E50003A6BAA4B786BD3185B001B5A013C9C421F
:102E6000EBD017D9F96A8A4207D308314900FFF736
:102E700073F9FB6A78630833FB623B6B7A6B591C0E
:102E80005B0039639C527B6ACDE7013B3B637B6A05
:102E9000013B7B623B6B994A9A185200125A94424A
:102EA000F3D3CAD002230B70C7E73E69731C03D16A
:102EB000002240373A70C0E73800FDF730FC05903B
:102EC000002800D134E13B00403301930023019AF4
:102ED00013703B69752B59D0622B07D17B69722B1C
:102EE0005BD001240B230022029208E0722B50D108
:102EF0007B69622B51D0059B012402930A23019A1E
:102F00001278002A4ED1019A1370002C07D0380095
:102F1000FDF72DFC022C02D13800FDF728FC3B699F
:102F20000393222B01D0272303933800FDF71FFCC6
:102F300001223B690492039A93420AD17B699A4227
:102F400007D13800FDF713FC3800FDF710FC032310
:102F5000049300253C69631C00D1E1E0049B012B34
:102F600002D10A2C00D1DBE0049B9D421DD3380026
:102F700029004430FFF73EFF01213800FDF728FC0F
:102F80003800FDF7CCFB0028A3D156E701240A2323
:102F9000A9E700240A230294B1E7059B02240293C7
:102FA0000B23ACE79A42B0D047E7039BA34209D179
:102FB0003800190044300135FFF7C7FE3800FDF72F
:102FC000D6FBC7E75C2C00D0A4E03800FDF7CFFBB0
:102FD000029B3E69002B06D038005C214430FFF78D
:102FE000B4FE340064E0782EF6D85B2E06D8222E8C
:102FF00041D023D80A2EEFD10025DFE730005C381E
:103000001C2866D81BF08AFE3765656565802465D7
:1030100065652C65656565656565286565650F652C
:10302000262E2A655E000D24019B1B780A2B6DD18C
:10303000380021004430FFF788FEDDE7552E11D01F
:10304000CAD8272E17D04E2E43D12D4805F0A8FF01
:103050000824E9E70924E7E70A24E5E70B24E3E786
:103060000C24E1E7019B1B780B2B06D138005C2177
:103070004430FFF76AFE3400D6E70825752E00D1EC
:10308000043D00242026013D3800FDF770FB3B691C
:103090007F2B19D840211B4AD25C0A4214D0303B06
:1030A0002401092B01D9B343073BE418013DEBD2BE
:1030B000631CA1D088235B039C42B5D30122019BF2
:1030C0001A7099E70225DCE70122019B00241A709F
:1030D000AAE73400303C0325072C00D97CE77B6944
:1030E000303B072BE4D8013D002DE1D03800FDF73F
:1030F0003EFB3B69E400303B1C19F0E7FFFFFF7F1C
:103100002A780200E01B020007248DE7FF2CD5D8A7
:103110000B2BD3D13800E1B24430FFF70FFE6BE741
:10312000049B9D4200D322E70323019A13701EE7FC
:103130003000FDF7A7FA002822D15F2E20D07F2E85
:103140001ED83000FDF7AAFA041E59D1904B019306
:103150002E2E04D17869FDF7A1FA041E52D1022364
:10316000019A1578002D02D0AE4200D0AFE03800B1
:10317000FDF7FDFA002D00D0B4E00122403799E6BA
:103180003D0007233C0040352B704434F1B2200051
:10319000FFF7D4FD3800FDF7EAFA3E69731C0DD045
:1031A0003000FDF76FFA0028F0D15F2EEED07F2EB1
:1031B000ECD83000FDF772FA0028E7D12000FFF7C5
:1031C000AEFD00240600734FA3003000F9581BF039
:1031D000E8FC00280DD10D34E4B22C70102C00D086
:1031E0002BE66D4BDA6D0D23002A00D102332B70D4
:1031F00023E6002800DA20E60134242CE4D11CE682
:103200002E2E32D13B00092240331A700023019345
:103210003D00443531002800FFF797FD3800FDF7E9
:10322000A6FA09263C69631C00D106E6019B002B27
:1032300031D1230020229343452B2CD13B00403336
:1032400065211E702800FFF780FD3800FDF78FFA1A
:10325000396902220B002B3B9343E3D12800FFF78F
:1032600074FD3800FDF783FADCE73B0008224033A9
:103270001A70302ECAD120237A691343623B162B71
:10328000C4D8464ADA4013000122190011400191C6
:103290001342BDD1BAE72000FDF7F4F900280AD1A6
:1032A0002000FDF7FBF9002805D12E2C0CD13B00A6
:1032B00040331E7006E02E2CF9D0230020229343C9
:1032C0004A2BF4D02100C9E75F2CCAD0B5E5633D95
:1032D0009D43EDB26A425541019A013452190132BF
:1032E00001923DE7212D09D13B693D2B00D044E7F8
:1032F0003800FDF73CFA40373822DBE5019E22001A
:1033000001362E2D1ED13C003B6940342E2B02D1BC
:103310007B692E2B02D05B2323708EE53800FDF7EE
:1033200026FA3800FDF723FA0C23F5E7737839699C
:10333000013499420FD13800FDF719FA2200652DAA
:103340000BD00236357802212B00633B8B43DBB276
:10335000002B02D1EAE7632DF3D1114B9B5C3A00BD
:1033600040321370533BDBB2052B00D965E50122D7
:103370009A4013002A22134207D1153A134200D172
:103380005BE5BB6A0133BB6257E5BB6A013BFAE709
:10339000E5770200501B0200CC0100200120400014
:1033A00054F3010070B51500426804000B008A4216
:1033B00003D949198A4201D8636070BD8068521AE6
:1033C0004118C0181BF096FB63685B1BF4E770B5EF
:1033D000050008000E001BF0DCFB041E04D00200F8
:1033E00031006B6828689847200070BDF0B587B041
:1033F000039205910D9A03990500521A0CA90978B8
:1034000020200C0084433FD00CA8029001200190A2
:10341000302903D1234902911021019180211C0000
:103420000C400B4232D0D40FA4186410171B002C90
:1034300035DD2600019B0493B34200DD04966B68E2
:10344000049A029928689847049BF61A002EF1DC2A
:10345000039B002B06D06B68039A05992868984750
:10346000039BE418002F0CDDE419019EBE4200DD31
:103470003E0032006B68029928689847BF1B002FF6
:10348000F3DC200007B0F0BD0749C4E701211F00AD
:103490000F400B4201D11400C9E71700D8E7002400
:1034A000D6E7C04691F3010080F30100F0B58DB07E
:1034B000049314AB1E780F230D0004A95B180021A0
:1034C000139F039019708A4221D08D421BDA2D225E
:1034D0006D421A70129B0CAC0A3B059328000499AC
:1034E0001BF076FC0B002A0030330500092901D9B6
:1034F000059B5B18013C237008AB9C420FD0049BDA
:103500009342EBD90BE0BA072DD52B221A70002D70
:10351000E0D130221F2408ABDA7304ABE4180F218A
:1035200040223D0004ABC9180B78154017421ED04D
:103530000025AB420AD03F3A3B0003980192009627
:10354000FFF754FF0500159B013B15930CAB1A1BAD
:10355000159B2100019303983B000096FFF746FF5F
:1035600028180DB0F0BD7A07D1D52022CEE7002B68
:10357000ECD008AA9442E9D9013C2370E6E7F0B503
:10358000140000268DB007900F003B78002B2ED141
:10359000B94230D30B78002B00D1FDE020230893F3
:1035A00000234D1C05932B78002B07D02B2B3BD0F1
:1035B0002BD8202B3ED0212B3ED000230A2106936E
:1035C0002B781A00303A092A38D92E2B67D16B781C
:1035D0002A2B3AD000270A2201352B7819003039DE
:1035E000092934D85743FF18303F0135F5E7252B1B
:1035F000CED00137C9E7079B07987D1A2A005B6880
:103600000068984776193900C4E72D2B07D0302B76
:10361000D3D14022059908931143059108E0012375
:10362000059A1A43059203E00222059B1343059372
:103630000135B8E70423F3E70823F1E7069A0135DB
:103640004A43D318303B0693BAE780CC0235FB439C
:10365000DB171F402B786C3B5A425341ED182A78F8
:10366000002A00D198E0782A00D98CE0612A19D884
:10367000502A7ED0582A00D085E00621531C0B40EA
:103680000A31CB1A06990391089902910599019183
:103690000F218A430F3AD2B20092002264E0012740
:1036A0007F42D7E71000623816286CD81BF02CFB3D
:1036B0000C24526B6B6B6B6B6B6B6B6B6B6B612E60
:1036C0006B406BE56B6BE50008CC002B0CD0042243
:1036D000069B33490193089B0093059B0798FFF7CE
:1036E00085FE3618691C4FE7069B05220193089B4F
:1036F0002C490093059BF1E708CC0BA90B70069BA6
:1037000001220193089B0093059BE7E70BA901CCDD
:10371000FFF772F901007B1C03D00B9B9F4200D284
:103720000B97069B0B9A0193089B0093059BD5E78B
:1037300008CC180009931BF02CFA02007B1C02D065
:10374000B84200D93A00069B09990193089B00935F
:10375000059BC3E7069B01220393089B0293059BED
:10376000019361230093573B02CC0798FFF79EFE1D
:10377000B7E7069B0393089B0293059B0193612384
:103780000093513B89E7079B0798012229005B685A
:10379000006898470136A5E730000DB0F0BDC0467F
:1037A0003F780200447802000EB403B503AA02CAAF
:1037B0000192FFF7E4FE02B008BC03B01847F0B571
:1037C0005B4B5C4DDB7F8DB0002B71D0A022A12321
:1037D0005949D205DB00D1502B1DDC7F012321008C
:1037E0000D318B40554E0134E4B29351032C00D17E
:1037F000002428002B1D142200212630DC771BF02A
:103800008BF904204E4B62009B1805211A785F78D3
:103810004A43AA18D21901278740BC466146127A4A
:10382000013010325200AA18D78806330F43D780D0
:103830000D28EAD10121A023A1220D34A140DB05EE
:10384000D20099502A8F9A513E4E2A68B3680633A7
:10385000B360934206D30023B3603379012B29D0A0
:10386000022B5FD00022AB1CDA77FF23AA8C5B000F
:103870001A421DD08024344A0B33A402FF33D450A3
:1038800001230F2753643149314B5658D058BD336B
:10389000FF33F618361AF3173B409B192D4E1B11B8
:1038A0002E64C12501331B01AD001B185451535028
:1038B0000DB0F0BD284B294C9A6C002A02D0DB6C6D
:1038C000002B02D1FCF7F0FBCCE7238968460133DB
:1038D00023811BF0ABF800280CD1306806F054FCB3
:1038E0000600FDF769FF2389013B23813000FDF7C6
:1038F00041F9B7E72389019E013B238118493068CC
:103900000CF0F2FF00280BD1300004F0BBFA154B8D
:10391000834203D114491548FFF746FF019BE36139
:103920000026E3E71249281DFCF798FCCAE7C046C9
:103930000300002000000020F01F00000C05000024
:10394000A2F30100C00000200090004044050000E8
:103950004C05000001010000CC010020D000002037
:10396000D8F30100FCF301004A78020090F2010054
:1039700080F10100F7B50D00264904000092FFF721
:1039800013FF009B002B03D120002349FFF70CFFFE
:10399000224B2000190001930026FFF705FF2800A5
:1039A000FCF755FCB04233DC20000199FFF7FCFE28
:1039B000009B002B03D120001949FFF7F5FE2000E2
:1039C0001849FFF7F1FEF7BD390032002800FCF777
:1039D00012FC154B15491A5C2000FFF7E5FE013774
:1039E0002800FCF72DFCB842EEDC20001049FFF760
:1039F000DBFE009B002B09D12800FCF728FC0138D6
:103A0000B04203DD20000B49FFF7CEFE0136C6E7CA
:103A10000027E5E76A780200717802007D780200ED
:103A2000D7AB02000D9802007F780200969D02003D
:103A300014AB0200777802000300002210B59A56FA
:103A40000078002A0BDA7F2210403F3A024207D169
:103A50003F2101331A7814008C43802C03D010BD11
:103A600090435208F2E780010A4001331043F1E726
:103A7000030030B541183F2400208B4200D330BDF5
:103A80001A780133A243803A551EAA418018F4E700
:103A9000F0B50200411806240020E52503263F2743
:103AA0008A4203D343425841C0B216E0137800283B
:103AB00006D0BB43802B11D10138C0B20132EFE7F1
:103AC000BF2B07D9F72B08D82800DB082340184163
:103AD0003040F3E75BB2002BF0DAF0BD0020FCE7EA
:103AE0000239814202D30B88002BF9D00231081A27
:103AF0004010704730B504000120994213D307D815
:103B00004B00E418D21802235B42002901D10800BF
:103B100030BDE05AD55A401B04D4023B002804D1E2
:103B20000139F2E701204042F2E70120F0E7F0B569
:103B300004001D09002095421BD20F30034068008D
:103B40000918501B050026000F883A00012D02D0ED
:103B50004A8812043A43DA40013D3280023102368B
:103B6000002DF1D14300E418023C23885A4253410E
:103B7000C01AF0BDF7B5019108990600521A944693
:103B80000D000022019F002D12D1089B65465900AF
:103B900043181E00019C6118002D14D16146490094
:103BA0005B18002A01D01A800233181A4010FEBD9B
:103BB0003C881988013D6418A21832800237120C23
:103BC00002360233DFE70C88013DA2183280023151
:103BD000120C0236E0E7F7B5089C0F00121B0192A9
:103BE0002500060000220093002D0CD1640003196B
:103BF0001E00019D0919002D14D1019A5100591878
:103C0000FFF76EFFFEBD3B88013D9C46009B624472
:103C10001B880237D21A009B3280023312140236FC
:103C20000093E1E70C88013DA218328002311214A2
:103C30000236E0E710B5041E05D08068FEF778F97B
:103C40002000FEF775F910BD70B505000C000229C3
:103C500000D20224A868002803D02B689B08A34246
:103C600009D26100FEF778FA03222B68A400134002
:103C70002343A8602B6070BD70B505000C20FEF7D3
:103C8000C5F8032204002B780178DB07DB0F914392
:103C900013400B4303702868236880088100134099
:103CA0000B4323606B6840006360FEF7AFF8A060D1
:103CB0002A68A968920852001AF0EEFE200070BD32
:103CC00070B504000D004968FFF7BEFF01212A7896
:103CD00023780A408B43134323706A68A0686260AC
:103CE0008A40A9681AF0D8FE70BD73B50D000600B1
:103CF0001400536849689268A868FFF7FBFE002823
:103D000002DB23002C001D0023782A7861685340D1
:103D1000DB0716D430000131FFF796FF6B68009384
:103D2000AB686268A168B068FFF724FF706001218A
:103D3000431E98412278337802408B4313433370FB
:103D400073BD3000FFF780FF6B680093AB6862685B
:103D5000A168B068FFF73FFFE8E7F0B54B680400E3
:103D60000E00150089B0002B02D05368002B07D13C
:103D700001222378934323700023636009B0F0BDD0
:103D8000814237D10800FFF777FF06000700A54200
:103D900039D06B6871682000C918FFF755FF226899
:103DA000002192085200A0681AF0B6FEA36803939F
:103DB000B368069373680493AB6801936B689C4681
:103DC000049B5B000593059A039B9A1800236046A9
:103DD0000599511A00283FD1012163602B78327870
:103DE00038005A4023780A408B4313432370FFF76F
:103DF00021FFC3E700278242CBD11000FFF73CFF31
:103E000005000700C5E70500C3E70888C318079346
:103E1000009B1B881800019B1B88434307981B18B5
:103E200002980B800138029000981B0C0230009021
:103E3000023102980028E8D11100002B01D0138034
:103E4000911C039B0232CB1A012149428C440199F7
:103E50005B1002310191BAE7069B0093049B029329
:103E60000023E6E710B502008168436800205B008C
:103E7000CB18023B9C1CA14204D31378DB0700D56E
:103E8000404210BD1C8800042043F2E7F0B587B023
:103E9000050003921800002900D098180024AA6891
:103EA000260001926A68029201220492039A9A18EB
:103EB0000592029A002A0BD100293BD0C21A1800A1
:103EC0002B780021DB0700D5FF311AF025FE25E015
:103ED000019A240412881036144301272A781740C7
:103EE000BC46072E06DC019A02320192029A013A80
:103EF0000292DEE76746A2B2002F07D0FF27974362
:103F00003A00049FD21992B2170A0497D2B200293C
:103F100006D0013884460270834207D107B0F0BD55
:103F20000270059A471CBC469742F7D06046083E8F
:103F3000240AD2E7039A9B181A1AC1E770B50D003C
:103F400002210400FFF780FE002101202B008D429A
:103F500001DA01006B42227882430A432270002278
:103F60006260002B00D170BD6268A168501C5200D5
:103F7000606053521B0CF4E7F0B5050001270026E2
:103F80000C00516893B0013106920793FFF75CFE75
:103F9000069B00215A68A868013252001AF0BCFD45
:103FA0002B786E60BB432B70069B20005968C919A3
:103FB000FFF74AFE20000699FFF782FEA3680293EE
:103FC000079B02989B680493079B049A5B68059380
:103FD000AB680893636803930399059BFFF78AFD19
:103FE000B04232D1089B60601F806F60616801221F
:103FF0004B1E99412378194093430B432370079933
:10400000069B09781B784B4013421CD069684B1EF5
:1040100099412B7893430B432B706368002B12D08C
:104020000121002349420FA80F9310931193FFF72A
:1040300085FF290028000FAAFFF757FE2100200066
:10404000079AFFF752FE13B0F0BD002801DA6E6048
:10405000CCE7059B724A01969A18049B52009B1864
:104060000993049B9B5A19B200295FDA002010279C
:10407000039B02995B005852636801336360019BA4
:10408000FB1A0393029F6368BC465E00B44461451B
:1040900053D309990198098881400991059901290B
:1040A0000AD910200499019F891802390988C01B78
:1040B000C1400998084309900299023E8919039169
:1040C00005995B1A56496B605B1808995B00CB1821
:1040D0000A93931C0D936368059A9A4238D3102172
:1040E00000264F4A9B18029A5B00D318019A891A3E
:1040F000029A9A4200D886E06B68002B07D0484AA3
:1041000008999A185200525A002A00D185E0636833
:10411000002B00D16AE7424A02999A185200525A7B
:10412000002A00D062E7013B6360F0E701995B0081
:10413000013189B29BB2019195E70B88019F1E0066
:10414000BE40064303980E80C340023198B299E7FF
:10415000039B09991888023B1B88000418431AF036
:10416000FBFD0D9A039B84469B1A00221800160043
:10417000049F0B93039B83420FD81B889A18002A35
:104180003CD162460A9B1A80023B0A93039B023B86
:1041900003936368013B63609DE73B880199360C9C
:1041A0008B4061461E43B3B259430C9191B20B0050
:1041B0000188121459186B461B8E0237C91A0C9BC2
:1041C00001801B0CD21A091452180230D2E7000CDD
:1041D00037880C900198023687400C9838430F8836
:1041E000FF1883B2DB190B801B0C0231039F8F4237
:1041F000EDD8D21801235B429C44C0E700230B9901
:104200001800049EF2E71A88019F100038418A4086
:104210003043188096B2023B6AE7013B6B606BE764
:10422000FFFFFF7F7FB506005420019102920393A8
:10423000FDF7ECFD030001AD40C3040007CD07C34B
:10424000022200250123524222620C32E262E36123
:10425000236314206562A562FDF7D8FD606320002A
:1042600020214430FEF7DAFC636B20001D80A5613D
:1042700065612561FCF77BFA2000FCF778FA2000E5
:10428000FCF775FA2000FEF7BCFDE36B012B03D0B1
:104290002300052240331A70200004B070BD1FB502
:1042A0000400010001A80FF06BFF20001AF071FC60
:1042B00001002000FEF768F80199029A039BFFF7BE
:1042C000B1FF04B010BDF0B599B00492C14A059099
:1042D0000992C14A07AB802000240F000A9191691E
:1042E000936140230791BD49800008910B930C9482
:1042F000FDF78CFD20230D9080200E930F94FDF789
:1043000085FD01231593049B3D2210901197139472
:10431000149416941794A34203D00232022B00D0B7
:1043200022000023B96BD2B20BA8FDF722FF0022B6
:104330000C9B002B00D169E10D99013B0C93DB0034
:10434000CB18D97818CB1B021B0A0293A44B0091FF
:104350005B5C0393A34B5B5C632902D9802149001A
:104360000B43A1495B005B1801930F23039D039945
:104370001D4021330B40102B1AD0202B49D0002A8E
:1043800000D106E1022D00D0F7E0012C18D0002268
:104390000399631EC90705D501994988090B0129AD
:1043A00000D16308012B00D0E5E0002ABFD0E2E095
:1043B000002C07D18022390052014031A54204D897
:1043C0000122B5E7002AB2D0F4E7019B66009B5BAF
:1043D000180B000390420CD108781B051B0D984266
:1043E00015D10BA80099FEF76FF83800FEF709FD0C
:1043F0009DE7631CAB4204D2009A02990BA8FDF71B
:10440000B8FE019B995B0BA8FDF7D5FE8FE7013441
:10441000D4E7002A0BD0754B019AE3185B009B5A36
:104420001B0B032B1ED100210BA8FDF7CCFEA542D0
:104430002ED8049B002B08D0009B052B05D1002112
:104440000BA8FCF794FA061E42D000242600002D8B
:104450005ED1012E00D083E0039B5B0600D47FE099
:104460002E0076E0012CABD93B0040331B7860482E
:10447000052B00D003E15F49343004F04BFC04000D
:104480000023BA6B396805F0C5F920001AF0E2FA8A
:104490008021019B66009B5B49011A0B12038A4233
:1044A00014D13A0040321278DBB29A420AD1072A7C
:1044B00003D100990BA8FEF707F83800FEF7A1FC1E
:1044C0000134B4E7002C00D17AE7CDE7631C93E711
:1044D00001210BA8FCF74BFA0400830705D00F233A
:1044E0000340022B07D13400B1E70028AFD0436866
:1044F000DBB23A2BF7D10BA8FCF732FA0BA8FCF78A
:104500002FFA0023082202990BA8FEF760F80EE7A5
:104510008021019A013D6B00D35A49011A0B120305
:104520008A4205D1DBB2072B91D1013401368EE7E7
:1045300021000BA8FCF71BFA431E984101343618E2
:1045400085E70BA8FCF70CFA002800D1280005002D
:104550000136A642F5D129000BA8FDF734FEE6E6A8
:104560006B461B7B5BB2002B04DA00210BA8FDF726
:104570002AFE01342300009AC5E7012C00D11FE771
:1045800001222300134014423ED0032D00D1FFE648
:104590006AE7230001222B40019913405A00565A22
:1045A0008021320B120349018A4225D13A00403260
:1045B00012783605360DB2420AD1002B03D100998C
:1045C0000BA8FDF781FF3800FEF71BFC0134E0E784
:1045D0000134D7E65D2C0000D0000020E96F000018
:1045E000A01A0200F019020068160200FFFFFF7F08
:1045F000ECF301008A7802000299009A631C0BA870
:10460000FDF7B7FD3100FEE61A00C1E615AB1B78D9
:104610009B0702D41798FDF78BFC07210022159BFE
:1046200014980B401692159390420BD041680831B4
:10463000FDF796FC149B5A681A60149B139A5A60F3
:10464000149B13933B0040331B78002B00D00BE7E7
:104650000F9B002B00D107E7109B0D981B6812934E
:10466000FDF766FC1098FDF763FC0120FDF7ACF840
:10467000059A12AB03CB03C2059819B0F0BD022B0B
:1046800001D10249F8E602490248F6E69C780200A8
:10469000CA78020030F3010030B500220400058D15
:1046A000954201D8002030BDE36AD0001818436855
:1046B0008B42F8D00132F3E770B504000D0016000C
:1046C000FFF7EAFF002817D1E18C238D8B4208D336
:1046D0000631E06AC900FDF73FFDE38CE062063376
:1046E000E384238DE06A5A1CDB00C0180023228576
:1046F000067043704380456070BD70B504006278F9
:10470000006A012A02D1FFF7D7FF70BD034D0B00ED
:1047100002002900606A03F004F8F6E744F401009F
:1047200070B505000C1E05D0CB0704D5406A4910B2
:1047300003F05CF970BD8B0714D00F2309092340E7
:10474000022B08D0062B09D00429F3D0406AC9B245
:1047500003F03DF9EEE7FFF7D0FFEBE7406A03F027
:1047600087F9E7E70968406A03F0D6F86368044A06
:10477000DBB29B00210028009B589847DAE7C0462F
:104780007C150200F8B505000E0000244F683F0AB2
:10479000BC420FDA3300A200083399582800FFF713
:1047A000BFFF6B68002B06D00234A4002800A1597B
:1047B000FCF7E4F8F8BD0134EAE710B50400FFF7B0
:1047C000E1FF2221606A03F083F910BDF8B505000E
:1047D0000C004E68360AB700CF19BC4205D1310033
:1047E000686A002203F08FF9F8BDA1682800FFF77E
:1047F00097FF0434F1E7F0B505000C00170003261D
:1048000085B0019300212000FCF7ADFE002806D002
:10481000002F0CD10199686A03F050F907E00121DB
:104820002000FCF7A0FE002803D0002FF2D105B035
:10483000F0BD002C45D0344243D163681A0A02927D
:10484000FF2213401E2B2ED1002F30D10026EB6803
:1048500003930133EB60029B013BB3420DDC0299F1
:1048600028000131890009593A00019BFFF7C3FF75
:104870000399686A03F09CF8D9E721000122B0008F
:1048800008310958039B28007A40FFF7B4FF01362E
:10489000E1E7A1683A002800019BFFF7ACFF043470
:1048A000B442F6D1C3E71F2B05D1002FCED1029B16
:1048B0009E003619F4E7202B03D11F3BA4685F400C
:1048C000A0E728002100FFF72BFF4322686A019B25
:1048D000002F00D144220121494202F0D7FFA6E770
:1048E00010B504008968FFF71BFF606A03F0D3F876
:1048F00010BD70B58D680400002D08D16422290018
:10490000446A200002F042FF0123A37170BDAB078F
:104910000FD16B68DBB25E2B0BD1A968FFF700FFEC
:104920002000E968FFF7FCFE66220221646A494222
:10493000E7E729002000FFF7F3FE65220121646A02
:10494000F5E7F8B5164B0400DF6D0D00002F25D1FB
:10495000C6680122731CC36089683300FFF74BFFF0
:104960001F210122606A02F038FFE968002908D09F
:104970002000FFF7D5FE3B003A000121606A03F0FA
:10498000D5F80121656A49422800652202F0FEFE41
:104990000123AB713100606A03F00AF8F8BDC0462C
:1049A000CC010020F0B50D00C36887B0019301333E
:1049B000C36004000021A868FCF7D5FD021E1FD1CA
:1049C000E76820007B1CE360A9683B00FFF713FF4A
:1049D0002000E968FFF7A4FE0121A868FCF7C3FDE9
:1049E00000281CD12B69002B02D16B69002B03D04E
:1049F0000199606A03F062F83900606A02F0D8FF3A
:104A00002800712105AA1030FBF794FF00260390BF
:104A1000039B9E4209D120006969FFF781FE01993D
:104A2000606A02F0C5FF07B0F0BD059BB200D75821
:104A30000021B868FCF797FD021E1AD1E368200038
:104A400002930133E360B968029BFFF7D4FE2000B4
:104A5000F968FFF765FE0121B868FCF784FD0028BE
:104A6000DDD10199606A03F029F80299606A02F0C9
:104A70009FFF0136CCE7F0B50D00436985B0039385
:104A8000C668438B771C0293B31CC360038B86827A
:104A9000C782438304000021A868FCF764FD002856
:104AA0001FD1E368012101930133E360A868FCF79B
:104AB0005AFD002803D13900606A02F0FFFF019916
:104AC000606A02F075FF2000E968FFF729FE3900EF
:104AD000606A02F06DFF01222000019BA968FFF7C8
:104AE0008AFE039B20006361029B63832969FFF7B1
:104AF00017FE3100606A02F05BFF05B0F0BDF7B54C
:104B000004000E00C568CF686B1C0193AB1CC3602A
:104B100000222B00B968FFF76EFEB1682000FFF796
:104B2000FFFD691C606A02F0C9FF2900606A02F09B
:104B30003FFF0121606A494202F01CFEF968200033
:104B4000FFF7EEFD0199606A02F032FFF7BDF7B59D
:104B500004000E0000254B68C768DBB201937B1C84
:104B6000C3604B681B0A0093009B9D4204DB390025
:104B7000606A02F01DFFF7BD3300AA0008339958A0
:104B80002000FFF7CDFD009B01359D42EFDA019B30
:104B9000606A1E2B06D13B0045220121494202F0EA
:104BA00075FEE1E73B004622F7E710B5040089688F
:104BB000FFF7B6FDD3220021606A02F0E7FD10BDC9
:104BC000F7B50D004E6889680400FFF7A9FD0023C2
:104BD000360A0193032E03D9E36801930133E3609E
:104BE00001270C357B1CB3421BDB032E18D9E5686B
:104BF000606A6B1CE360290002F060FF0199606A43
:104C000002F0D6FE0121606A02F0B4FD606A02F093
:104C100049FF606A02F03FFF2900606A02F0C8FEA7
:104C2000F7BD200069680237FFF77AFDB74205DA61
:104C3000606A02F02AFF606A02F03AFF0F232968D7
:104C4000606A0B400A2B13D10909CBB20621242B31
:104C500001D0333BD9B202F03BFFB74206DA012163
:104C60004622019B606A494202F010FE0835B9E70E
:104C7000FF224B681340852B01D13221EBE78B6873
:104C80000721002BE7D03321E5E7F7B54E680D008B
:104C900033000D3BDBB28968040001930127FFF765
:104CA0003FFD360AB74200DBF7BD2B00BA000833E0
:104CB00099582000FFF734FD0199606A02F008FF5F
:104CC0000137EFE7F8B50C004F688968050000264A
:104CD000FFF726FD3F0A0C340236B74200DCF8BD70
:104CE00061682800FFF71CFD2168686A09092339FB
:104CF000C9B202F0EDFE0834EEE770B50D00C968E8
:104D00000400FFF70DFDAB6802221B09DBB2322B5A
:104D100001D03E3BDAB2303A0021606AD2B202F0F2
:104D200035FD70BD70B5437804001500CE68012BC9
:104D300006D1036A0A001B8B2900FDF785F8706114
:104D40000023200071691A00FCF76BFC2000F16859
:104D5000FFF7E6FC062D04D15E220021606A02F016
:104D600015FD002301211A00606A02F0DFFE70BD0C
:104D700010B58968002904D10A00406A02F0C3FE18
:104D800010BD4B681B0A022B0CD1CB68002B09D03D
:104D90009A0707D15B68DBB2AC2B03D10622FFF781
:104DA000C1FFEDE7FFF712FDEAE770B58C6805007B
:104DB000002C05D101222100686A02F0A4FE18E04F
:104DC000032214421ED16368FF2118000840922874
:104DD00018D11B0A022B0DD1E368002B0AD0134215
:104DE00008D15B680B40AC2B04D121002800FFF7F1
:104DF00099FF70BD21002800FFF7C4FC6168012203
:104E0000090AD9E721002800FFF78AFC01221100D6
:104E1000D2E710B589680400FFF782FC0121552212
:104E2000606A494202F0B2FC10BD70B54B680400E4
:104E3000DBB20D00342B0DD18968FFF771FCED68F2
:104E4000AD68002D0BD10E21606A02F0C0FD042276
:104E5000022114E00E21406A02F0B9FDF0E70326BA
:104E600035421FD16B68DBB29A2B0CD10E21606AE0
:104E700002F0ADFDA96800290ED104220231606A5A
:104E800002F041FE70BD9B2B0CD1A9682000FFF7FA
:104E900047FCEB689968EEE72000FFF741FC04222D
:104EA0003100ECE729002000FFF73AFCCFE770B5AE
:104EB0000D000400C968FFF733FCA9682000FFF764
:104EC0002FFC70BDF8B5446805000E00002C05D11C
:104ED000F8BD042BFCD101330370F9E720006468AE
:104EE000002CF5D077683900FFF7D6FB0028F5D005
:104EF0000378043B022BEBD8062434706D68002243
:104F000039002800FFF7D8FB0378002BE1D10470AB
:104F1000F4E770B543680D0004001100002B07D1C1
:104F2000044803F0F7FE290060602000FBF726FD2F
:104F300070BDC04630F30100F7B5032704000D0033
:104F4000160039420DD00F230B40022B14D1090952
:104F50009E43012E02D0FCF739FBF7BDFFF7CDFBD6
:104F6000FBE74968FF200B0003402D2B7CD009D8BC
:104F7000062B0CD02C2B13D0290020004D4AFFF714
:104F8000C8FFEAE72E2B00D183E09D2BF4D1002E41
:104F9000F2D12A00090A0832200000F08DF8DCE77F
:104FA000022A03D02000A968FFF7BAFBEB68009340
:104FB000002BE1D00323009A00991A401942DBD15B
:104FC0004B680F00D9B28E2909D11B0A1700019333
:104FD000022E18D1019B009A01339B009F587B68D9
:104FE000DBB2312B26D1022E12D1606A02F060FDB5
:104FF0005622032119E0009BBA000833200099587B
:10500000FFF78EFB0137019B013B9F42F3DBE1E79A
:105010002000B968FFF784FB012EE9D15822022154
:10502000606A02F0B3FB55220121606A494202F036
:10503000ADFB92E7322B9FD1606A012E07D102F0BF
:1050400024FDB968606A090902F098FD85E7022E1F
:1050500001D102F027FD0221BB681822606A1B09FA
:10506000494202F0ABFB78E7AA68002A84D0002E00
:1050700082D15168090A022909D1D368002B06D0D0
:10508000980704D15B68DBB2AC2B00D174E708321F
:1050900082E7002A00D06FE7A9680A1E00D17BE7EB
:1050A000394203D14B680340922BE2D02A00012100
:1050B000083271E7D97802000B00F0B50125040031
:1050C000002685B0013B0291039201931F026D42BD
:1050D0001D4B9F4217D16B1C05D13022029B0199B9
:1050E000606A02F05EFB0026029B9E422AD0039A71
:1050F000B300D1580022B54200D189682000FFF7E3
:105100001BFF0136F0E7039AB300D158002911D0F4
:10511000032319420ED1FF224B681340222B09D1E1
:1051200001350BD13B000199606A3343CE3A02F05E
:1051300038FB3500013F0136FF3FC9E72000034A35
:10514000FFF7E7FE05B0F0BD00FFFFFFF4780200B7
:10515000F0B50D008B680F218BB0049304000B4059
:10516000022B00D0F1E0EB68002B00D1EDE003272B
:105170003B4200D0E9E0FF205A6802402C2A00D0D0
:10518000E3E09A681140022900D0DEE012097C2A8F
:1051900000D0DAE0DA6853680340302B00D0D4E066
:1051A0009368A23108AA09A80993FBF7C3FB431E21
:1051B000022B00D9C9E0089B1A680192012800D18E
:1051C000B8E0022800D1B3E09F68FA0700D4BCE041
:1051D0007A1000D1B9E05E68019B002B08D09B07D4
:1051E00006D1019B5B68DBB2A63B022B00D8ACE08A
:1051F000002E07D0B30705D17368DBB2A63B022BA4
:1052000000D8A2E02B69320005936B69E56803932F
:105210006369A5820793638B0693AB1C02936B1C97
:10522000E382238B63832B1DE36001231A400292E8
:105230001E4203D131002000FFF772FA20000199CD
:10524000FFF76EFA606AE91C02F038FCA91C606A7C
:1052500002F0AEFB606A02F018FC00222000049904
:10526000FFF76AFE20000599FFF75AFA606A691C89
:1052700002F09EFB39002000FFF752FA0E21606A0F
:1052800002F026FC606AE91C02F092FB029B002BF4
:1052900053D1606A5822022102F078FA606A02F063
:1052A00001FC0021606A002F00DA012102F010FCED
:1052B00001210026AB1C4322606A494202F0E6FA53
:1052C000079B6361069B6383039BB3421AD0606AAA
:1052D00002F0E1FB029BB34202D1606A02F0DBFB09
:1052E00020000399FFF71CFAE668606A731C31001E
:1052F000E36002F0E3FB0121029B606A5940013147
:1053000002F038FA2900606A02F052FB606A02F08B
:10531000C2FB029B002B02D1606A02F0BCFB039B24
:10532000002B03D03100606A02F042FB0BB0F0BDED
:10533000032750E7019E01905AE7606A02F0A5FB3F
:1053400031002000FFF7ECF9ABE76369E6680293F0
:10535000638B771C0193238BE78263831B4B2000B5
:105360003343A382F31CE360E968FFF7D9F95F22B6
:10537000606A032102F00AFA3900606A02F018FB41
:10538000B31C606A4B22012102F080FA0022200047
:10539000A968FFF7D1FD20002969FFF7C1F939009D
:1053A000606A02F08BFB606AB11C02F001FB042111
:1053B000606A494202F0DEF9029B20006361019BB2
:1053C00063836969FFF7ACF9ACE7C0460080FFFF73
:1053D000F0B585B00400160001910293002904D1B4
:1053E0000299FFF79DF905B0F0BDC7687B1CC3604B
:1053F0001568002D34D003232A001A4003921D4261
:105400002ED16B68DBB27B2B2AD1A968FFF788F914
:1054100039002000039AFCF7B8F82000039AE968E5
:10542000FFF78AFD0199029B321D20000139FFF729
:10543000CFFF656A0E21280002F0C9FA3900280062
:1054400002F0B6FA5C222800022102F09FF9042142
:105450002800494202F08EF92000FCF7ACF8C2E7C0
:1054600029002000FFF75CF9200000223900FCF73A
:105470008CF8606A02F00FFBD4E737B5050008002E
:105480000C0001AA7A210830FBF754FAE368010006
:10549000019A2800FFF79CFF37BDF0B587B00400E4
:1054A000170002910393002904D10399FFF738F9FB
:1054B00007B0F0BDC668731C0493B31C0193F31CC2
:1054C0000093331DC3601568002D00D1CCE0032389
:1054D0002A001A4005921D4200D0C5E06B68DBB27D
:1054E0007B2B00D0C0E0A968FFF71AF9606A02F0D0
:1054F000CCFAA7212000FCF731F92000059AE968D1
:10550000FFF71AFD022231002000FCF73EF8606A26
:10551000032102F02FF90299039B3A1D2000013963
:10552000FFF7BBFF0321606A494202F023F90E2115
:10553000606A02F04CFA606A02F0B4FA606A711CA8
:1055400002F0BCFA3100606A02F032FA606A02F0DE
:105550009CFA0122606A212102F03FF9606A082169
:1055600002F0B6FA0121019B44224942606A02F02E
:105570008DF9606A02F089FA606A02F099FA606A4D
:1055800002F090FAA82314220121606A02F016F9B1
:10559000606A02F08DFA606A02F08AFA606A02F0CC
:1055A00074FA0A21606A02F0E9FA606A02F07AFA93
:1055B000606A0E2102F00BFA042103233622606A8E
:1055C000494202F0EEF82000FCF7B8F80121009BF8
:1055D0004422606A494202F059F9606A02F05BFABB
:1055E000606A0E2102F0F3F90099606A02F066FA2F
:1055F000606A022102F0BEF80199606A02F0D8F9EF
:10560000606A02F055FA606A02F052FA0499606A20
:1056100002F0CEF9A8231422606A012102F0CEF82C
:105620000E21606A02F0D3F9606A02F02EFA606A15
:1056300002F02BFA0421032336224942606A02F069
:10564000B0F82000FCF77AF8606A02F024FA012131
:10565000606A494202F08EF8606A009902F0A8F987
:105660002000FBF7A8FF23E729002000FFF758F8E8
:10567000606A02F00AFA2000A721FCF76FF8606A5E
:1056800002F009FA3EE7F7B5CD6804000E00002DE0
:1056900029D10378002B14D0036A1D78002D10D176
:1056A000BD21FFF72AF82000B168FFF739F82B0079
:1056B0002A000121606A02F039FA606A02F0EBF90F
:1056C00010E0B1688B0707D00F230B40022B09D1E4
:1056D0002000FFF725F8F0E70029F9D04B68DBB28E
:1056E0003A2BF5D1F7BDAB074CD16B68DAB25B2A28
:1056F00010D1ED68002D45D1006A0378072BF1D158
:10570000896808330B40022BECD10909573AFEF7A0
:10571000D3FFE7E7562A11D1553A8968FFF70CFC09
:105720002000E968FEF7FCFFA968606A09093D39B5
:10573000C9B202F0CDF90222B16862E0572A21D144
:105740001B0A5F1E01339B005959FEF7E9FF002F2A
:1057500002DD606A02F099F9B16800222000FFF7CB
:10576000EBFB0026BE42BDDA0136BE4202DA606AB9
:1057700002F08BF9291DB30000222000C958FFF761
:10578000DBFBEFE7032005423FD16B68FF211A00E6
:1057900001930A40062A38D1B768002F35D0074256
:1057A00033D17A6813000B40062B2ED1019B120ACD
:1057B0001B0A934229D1022B27D1BB68002B05D0AD
:1057C000034203D15B680B40222B1ED0FB68002BE9
:1057D00005D09A0703D15B68DBB2222B15D02000DD
:1057E000A968FEF79DFFE9682000FEF799FF606A4F
:1057F00002F058F90022B9682000FFF79DFB002253
:10580000F9682000FFF798FB6CE729002000FEF7FD
:1058100087FF002290E7F7B504000D00C6680093EB
:10582000731C0193B31CC3603100406A170002F07F
:10583000BFF84B220121606A731C02F027F8A968A7
:1058400000222000FFF778FB2D69002D31D13900AF
:105850002000FEF765FF236A1F78062F14D1606AC7
:10586000290002F07DF9606A02F015F93100606AE2
:1058700002F024F90199606A02F09AF80421606A42
:10588000494201F077FFF7BD009B29009B002A00E9
:10589000606A0533032F04D00222042F01D10121B5
:1058A0000A00CB189B001343C9432F2201F079FF54
:1058B000DCE7FF226B681340AD2B07D1A9683300EA
:1058C00000222000FEF797FFED68BEE72000E968A0
:1058D000FEF726FF606A5F22032101F057FF009B5D
:1058E0003A00290020000133FFF795FFBEE70F23A0
:1058F00070B50B400400022B14D04868C0B2492890
:1059000009D04838082818D819F008FA08170717D6
:105910001717170507000123A37070BD8E680D6966
:10592000002D0DD1A378002BF7D1638A002BF4D082
:105930002000194AFFF7EDFAEFE78E68CD68EFE730
:10594000A378002B20D0238A01339BB22382012B22
:105950000BD1618A606A002913D0002202F0D3F8CB
:1059600002220021606A02F0CEF829002000FEF732
:10597000D7FE606A310902F07BF8606A02F0CFF866
:10598000CBE702F07CF8EBE7638A290001332000C3
:105990006382FEF7C5FEC0E70E7902000F23F7B55C
:1059A0000B4005000C00022B03D10909FBF720FE78
:1059B000F7BD002977D00327394274D1FF224B6805
:1059C00013402C2B4CD18968FEF7AAFEE668002E06
:1059D00069D0310039403E4265D1FF207268330002
:1059E00010408E280AD10F00130A0193019B013B3E
:1059F000BB4219DC019B01339B009B595A68D2B210
:105A0000312A1AD199682800FEF78AFE6C6A2000B4
:105A100002F035F8200002F04BF803215622200056
:105A2000494201F0B3FEC3E73300BA00083328004F
:105A30009958FEF775FE0137D8E7322A33D16C6AE0
:105A40009D68200002F01BF8200002F02BF80221D4
:105A50002D092B0018222000494201F0AFFEA7E7D4
:105A60002D2B20D18C68002C1DD062682C3B120A93
:105A7000022A0AD1E268002A07D03A4205D15368C7
:105A8000FF221340AC2B0ED0012362685E1C013B49
:105A9000120A9A4200D88BE7B300E1582800FFF7BA
:105AA0007DFF3300F1E721002800024AFFF731FAB9
:105AB0007EE7C0463C790200F8B54B680600DBB2D1
:105AC000092B2BD1848A1E4B9C4203D130001D4AE6
:105AD000FFF71FFA328B738B1B4F756A2740D61A5C
